:02000000D62AFE
:1000060083120313F801F9011030FC00710DF80D8D
:10001600F90D7408F8027508031C750FF902031828
:100026001B287408F80775080318750FF9070310DD
:0A003600F00DF10DFC0B0928080085
:10004000831203135208393C031C2D28303052020E
:0E005000031C2D280130F0002E28F0010800BE
:10005E00831603139818352800002F288312520890
:04006E0099000800ED
:1000720083120313D501053055020318472855088A
:100082005407840020308000D50A3C2855085407C4
:1000920084008001D50355085407D6000A30F400C5
:1000A200F5015208F0005308F10003207808F0002F
:1000B2007908F1003030F00756088400700880009B
:1000C2000A30F400F5015208F0005308F100032051
:1000D2007008D2007108D30000307106031D732826
:1000E20000307006031D76287828D5034C280800B6
:1000F20083120313FB01FA01F9018030F800F10CBD
:10010200F00C031C8D287408F90775080318750F85
:10011200FA070318FB0A0310F01F95287408FA0760
:1001220075080318750FFB07FB0CFA0CF90CF80C99
:10013200031C80287B08F3007A08F2007908F1009A
:060142007808F00008003F
:10014800831203132230FC00F801F901FA01FB01C4
:10015800FC030319DA280310FB0CFA0CF90CF80C51
:10016800F30CF20CF10CF00C031CAC28FC03031983
:10017800CC287408F80775080318750FF90776086E
:100188000318760FFA0777080318770FFB07B028CC
:100198007408F80775080318750FF9077608031827
:0E01A800760FFA0777080318770FFB07080099
:1001B600831203131A08F100981CE3281812181664
:0601C6007108F0000800C2
:0E01CC008312031339088A00380882000800E5
:0E01DA000030831203138C1A0130F00008006D
:1001E80083120313490884000008CA00CB010030B9
:1001F800CB0000304B06031D032920304A060319A3
:100208000E2900304B06031D0B2909304A06031935
:100218000E291029C90AF428CC01CD01CE01CF013D
:1002280000304B06031D1A292D304A06031D2129CB
:10023800CE0A0319CF0AC90A2A2900304B06031D22
:1002480027292B304A06031D2A29C90A4908840090
:100258000008CA00CB010030CB004A08D200202099
:100268007008031952294C08F0004D08F1000A30B3
:10027800F4000030F500792030304A02F2000030F6
:10028800031C013E4B02F30072087007CC00710892
:100298000318013E7307CD00C90A2A294E084F04E6
:1002A80003195F294C08003CF0004D08031C013E6F
:1002B800F101F10263294C08F0004D08F100080033
:1002C800A03083120313CB000F30CC00CD01CE0138
:1002D800A030F0000F30F1000030F2000030F300E1
:1002E8004908F4004A08F500F601F701A42070084F
:1002F800CB007108CC007208CD007308CE00003026
:100308007302031D912900307202031D91290230E6
:100318007102031D9129B230700203189429D32960
:10032800B230F0000230F100F201F3017008CB02A4
:100338007108031C710FCC027208031C720FCD02E6
:100348007308031C730FCE020530F0007008031900
:10035800B429CE0CCD0CCC0CCB0CCE13FF3EAB2964
:100368004B08F0004C08F1004D08F2004E08F3006D
:100378000130CB02031CCC02031CCD02031CCE02AD
:1003880070087104720473040319D3290000000073
:10039800000000000000000000000000B429080070
:1003A80083120313CD01CE014B080319132A4B08FE
:1003B800FF3A0319E029CB03ED207008003A031D2A
:1003C800E629E029DB207008CC004D0849078400A5
:1003D80070088000CD0A4E084A07840000084C06C1
:1003E800031DF829CE0A002ACE014A088400000815
:1003F8004C06031D002ACE0A4E084A07840000084E
:10040800003A031D122A4E084D02F000F101031CA8
:10041800F1037008490784008001162AD829490881
:06042800840080010800C1
:10042E0083120313CE01CF014908D0004A08D10030
:10043E0080304A06F00080307002031D282A0030FA
:10044E0049020318362A0130CE000030CF00490889
:10045E00003CD0004A08031C013ED101D1025008D5
:10046E00D2005108D3004B08D40039200630CC00FE
:10047E000030CD004D08003C031D472A4C08003CBF
:10048E000318622A4C084B07F20001304C02F000B0
:10049E000030031C013E4D02F10070084B07840032
:1004AE000008F00072088400700880000130CC0251
:1004BE00031CCD03412A4B088400203080004E08D7
:1004CE004F040319802ACC01CD014C084B07840040
:1004DE000008203A031D772ACC0A0319CD0A6C2A8C
:1004EE000130CC02031CCD034C084B0784002D3089
:0404FE008000080072
:100502008316031398169030831298008316871768
:10051200071383128C1E902A1A08F0008A2A0800F8
:1005220083120313F3017308243EF2007308490790
:10053200F0004A080318013EF1007008B800710883
:10054200B900E6208A110A12F000720884007008CD
:1005520080007208840000080319B12AF30A942A61
:060562002430F000080047
:1005680083120313CB01490884000008CA004A0813
:10057800003A0319C92A4A08D2002F20CB0A4B088F
:0C058800490784000008CA00BB2A0800D4
:10059400E6208A110A128000840AB80A0319B90AEB
:0805A400F003031DCA2A080040
:1005AC00643083120313A000A1013F30A200A30109
:1005BC00870188018501860183168501013086003B
:1005CC008701880167309900181581220330FB00E0
:1005DC000830FC007730FD00FD0BF22AFC0BF22AF0
:1005EC00FB0BF22A1730C9000530CA0091227008A3
:1005FC00C900B4220A30D2002F200D30D2002F2097
:10060C0008150230FB000430FC00BA30FD00FD0B75
:10061C000D2BFC0B0D2BFB0B0D2B000008110330CD
:10062C00FB000830FC007730FD00FD0B1B2BFC0B96
:10063C001B2BFB0B1B2B08150330FB000830FC009D
:10064C007730FD00FD0B282BFC0B282BFB0B282BEC
:10065C0008110430FB000C30FC003330FD00FD0BA6
:10066C00352BFC0B352BFB0B352B00000000081534
:10067C000430FB000C30FC003330FD00FD0B442B30
:10068C00FC0B442BFB0B442B000000000811ED204D
:10069C007008013A031DF72C3F30C9002230CA0004
:1006AC00FF30CB00D4214108533A0130031D0030F8
:1006BC00F1004208533A0130031D0030F00070087D
:1006CC00F10543084D3A0130031D0030F00070086D
:1006DC00F1054408543A0130031D0030F000700855
:1006EC00F1054508523A0130031D0030F000700846
:1006FC00F1054608473A0130031D0030F000700840
:10070C00F1054708433A0130031D0030F000710831
:10071C00F0050319592C4808303A031DAA2B08146C
:10072C002008C9002108CA00642108104A30C900F9
:10073C000530CA0091227008C900B4220A30D200D8
:10074C002F200D30D2002F204808313A031DC32B27
:10075C0088142008C9002108CA0064218810403080
:10076C00C9000530CA0091227008C900B4220A30B1
:10077C00D2002F200D30D2002F204808323A031D12
:10078C00DC2B08152008C9002108CA0064210811B7
:10079C005430C9000530CA0091227008C900B42237
:1007AC000A30D2002F200D30D2002F204808333AC7
:1007BC00031DF52B88152008C9002108CA006421E7
:1007CC0088116830C9000530CA0091227008C90030
:1007DC00B4220A30D2002F200D30D2002F2048082E
:1007EC00343A031D0E2C08162008C9002108CA0033
:1007FC00642108125E30C9000530CA0091227008CD
:10080C00C900B4220A30D2002F200D30D2002F2084
:10081C004808353A031D272C88162008C9002108E2
:10082C00CA00642188122230C9000530CA00912206
:10083C007008C900B4220A30D2002F200D30D2002B
:10084C002F204808363A031D402C08172008C900F1
:10085C002108CA00642108132C30C9000530CA00D5
:10086C0091227008C900B4220A30D2002F200D301A
:10087C00D2002F204808373A031D592C881720081E
:10088C00C9002108CA00642188133630C90005301C
:10089C00CA0091227008C900B4220A30D2002F205D
:1008AC000D30D2002F204108493A0130031D003091
:1008BC00F1004208443A0130031D0030F00070088A
:1008CC00F10543084E3A0130031D0030F00070086A
:1008DC00F10544082F3A0130031D0030F000700878
:1008EC00F10545082A3A0130031D0030F00071086B
:1008FC00F00503198F2C1730C9000530CA0091225E
:10090C007008C900B4220A30D2002F200D30D2005A
:10091C002F204508533A0130031D0030F1004608E2
:10092C00453A0130031D0030F0007008F10547080E
:10093C00543A0130031D0030F0007108F005031922
:10094C00F72C4808573A0130031D0030F1004908D4
:10095C00443A0130031D0030F0007108F005031912
:10096C00D62CF930C9000430CA0091227008C90095
:10097C00B4224130C900F4207008A0007108A10015
:10098C007008C9007108CA003A30CB0017223A30FF
:10099C00C900B4220A30D2002F200D30D2002F20F3
:1009AC004808443A0130031D0030F10049084C3A24
:1009BC000130031D0030F0007108F0050319F72C0D
:1009CC000830C9000530CA0091227008C900B42251
:1009DC003A30C900B4220A30D2002F200D30D20098
:0609EC002F204D2BF82C1A
:1009F200573469346434743468342034733465345D
:0E0A02007434203474346F343A3420340034A9
:100A1000443465346C34613479342034733465344F
:0E0A20007434203474346F343A34203400348B
:100A2E0054345234493447342D34533420347634CC
:060A3E00303431340034B5
:100A4400433448343634203454347234693467348B
:040A540064340034D2
:100A58004334483437342034543472346934673476
:040A680064340034BE
:100A6C004334483438342034543472346934673461
:040A7C0064340034AA
:100A80004334483432342034543472346934673453
:040A90006434003496
:100A94004334483431342034543472346934673440
:040AA4006434003482
:100AA800433448343334203454347234693467342A
:040AB800643400346E
:100ABC004334483435342034543472346934673414
:040ACC00643400345A
:100AD0004334483434342034543472346934673401
:040AE0006434003446
:02400E004A2F37
:00000001FF
